:0300000002016F8B
:0C016F00787FE4F6D8FD75813A0201B6F5
:10059900D3EF9400EE9400400DE4FD0DBD1BFCEF7C
:0605A9001F70ED1E80EA48
:0105AF002229
:0C05D500151C151C151C151C151C151CF4
:0105E10022F7
:030003000D0A00E3
:1002FF00C2A57FB47E00120599D2A51205D51205AD
:10030F00D51205D51205D5D2A520A55675250220E3
:10031F00A507AF250525EF70F675250230A507AFA8
:10032F00250525EF70F612044B853A3712044B85DD
:10033F003A3812044B853A2312044B853A2412049F
:10034F004B853A28D2A5E523252425372538F529CD
:10035F00B5280F85372A85382B85232185242285BB
:03036F002826221B
:10037200C2A47FB47E00120599D2A41205D512053B
:10038200D51205D51205D5D2A420A4567525022072
:10039200A407AF250525EF70F675250230A407AF37
:1003A200250525EF70F6120494853A3712049485D8
:1003B2003A38120494853A23120494853A2412049A
:1003C20094853A28D2A4E523252425372538F52912
:1003D200B5280F85372A85382B8523218524228548
:0303E200282622A8
:10044B00E4F51B75250220A507AF250525EF70F6F2
:10045B001205D51205D51205D5E4F52930A503757E
:10046B00290175250230A507AF250525EF70F6E5A7
:10047B002564016013E53A25E0F53AE529423A0592
:08048B001BE51BC3940840BBF4
:010493002246
:10049400E4F51B75250220A407AF250525EF70F6AA
:1004A4001205D51205D51205D5E4F52930A4037536
:1004B400290175250230A407AF250525EF70F6E55F
:1004C4002564016013E53A25E0F53AE529423A0549
:0804D4001BE51BC3940840BBAB
:0104DC0022FD
:1001FB00C2A91202FFD2A9752C4D752D31E52A75B6
:10020B00F00A842430F52EE52A75F00A84E5F024F3
:10021B0030F52FE52B75F00A842430F530E52B757E
:10022B00F00A84E5F02430F531E52175F00A8424D9
:10023B0030F532E52175F00A84E5F02430F533E52D
:10024B002275F00A842430F534E52275F00A84E532
:10025B00F02430F53575364EE4F537FB7A00792C02
:10026B001205747BFF7A007903120574E4F52C02F6
:02027B0005D5A7
:10027D00C2A9120372D2A9752C4D752D32E52A75BE
:10028D00F00A842430F52EE52A75F00A84E5F02471
:10029D0030F52FE52B75F00A842430F530E52B75FC
:1002AD00F00A84E5F02430F531E52175F00A842457
:1002BD0030F532E52175F00A84E5F02430F533E5AB
:1002CD002275F00A842430F534E52275F00A84E5B0
:1002DD00F02430F53575364EE4F537FB7A00792C80
:1002ED001205747BFF7A007903120574E4F52C0274
:0202FD0005D525
:1005260002170FA002192134011200011600010C56
:1005360001C101C100010A00010B000113000114F1
:07054600000109000108009B
:1003E500751E00751D10751C0E751B00E4FCFDAB1C
:1003F5001EAA1DA91CA81B12003FE47BE87A03F97D
:10040500F81200CA8F1E8E1D8D1C8C1BC3E4951E11
:10041500F51EE4951DF51D7401951CF51CE4951B51
:10042500F51BAF1EAE1DAD1CFC780812015C8F0AD2
:10043500851E0B5389F0438901850A8C850B8AD269
:050445008CD2A9D2AF2A
:01044A00228F
:1004DD001205B07F0A7E001203E57F017E00120532
:1004ED0099D2A6300115E51524BE6007047008C227
:1004FD00A68006D2A68002C201C201E514B4010A8B
:10050D00E4F514C2A912027DD2A9E513B401D4E415
:09051D00F513C2A91201FB80CA0A
:0300230002000ECA
:10000E00309902C299309807859915D201C298325B
:03000B0002054E9D
:04054E00C0E0C0D079
:10055200850A8C850B8A0508E508B46403751301C6
:0D056200E508C394C8400675080075140133
:05056F00D0D0D0E03205
:1005B000758920758DFD758BFDD28E759850D2ACE6
:0705C000D2AFC299C29822DC
:0E05C700C2ACC2998F993099FDC299D2AC2274
:100574008B1B8A1C891DAB1BAA1CA91D120026609B
:1005840013051DE51D7002051C14F9120026FF1247
:0505940005C780E22212
:10017B000204DDE493A3F8E493A34003F68001F2B9
:10018B0008DFF48029E493A3F85407240CC8C33385
:10019B00C4540F4420C8834004F456800146F6DF54
:1001AB00E4800B0102040810204080900526E47EB9
:1001BB00019360BCA3FF543F30E509541FFEE49349
:1001CB00A360010ECF54C025E060A840B8E493A310
:1001DB00FAE493A3F8E493A3C8C582C8CAC583CA3B
:1001EB00F0A3C8C582C8CAC583CADFE9DEE780BEF3
:01054D0000AD
:10002600BB010689828A83E0225002E722BBFE02D8
:09003600E32289828A83E493220B
:10003F00E88FF0A4CC8BF0A42CFCE98EF0A42CFC60
:10004F008AF0EDA42CFCEA8EF0A4CDA8F08BF0A4DE
:10005F002DCC3825F0FDE98FF0A42CCD35F0FCEB3D
:10006F008EF0A4FEA9F0EB8FF0A4CFC5F02ECD3902
:0F007F00FEE43CFCEAA42DCE35F0FDE43CFC226F
:10008E0075F008758200EF2FFFEE33FECD33CDCC29
:10009E0033CCC58233C5829BED9AEC99E5829840AC
:1000AE000CF582EE9BFEED9AFDEC99FC0FD5F0D689
:1000BE00E4CEFBE4CDFAE4CCF9A88222B800C1B9B3
:1000CE000059BA002DEC8BF084CFCECDFCE5F0CBF1
:1000DE00F97818EF2FFFEE33FEED33FDEC33FCEB2A
:1000EE0033FB10D703994004EB99FB0FD8E5E4F9E5
:1000FE00FA227818EF2FFFEE33FEED33FDEC33FCD2
:10010E00C933C910D7059BE99A4007EC9BFCE99AC5
:10011E00F90FD8E0E4C9FAE4CCFB2275F010EF2F0A
:10012E00FFEE33FEED33FDCC33CCC833C810D7070A
:10013E009BEC9AE899400AED9BFDEC9AFCE899F845
:0E014E000FD5F0DAE4CDFBE4CCFAE4C8F922D8
:10015C00E8600FECC313FCED13FDEE13FEEF13FF81
:03016C00D8F122A5
:00000001FF
