:0300000002058472
:0C058400787FE4F6D8FD75813C0205CBC1
:100758004E4F20543A2D2D2D2D2D2053543A303004
:1007680000203120523A2D2D2D2D2D2053523A3074
:0207780030004F
:1006F100013C00012F00C1000B310000000000008F
:100701000000000000012100012E00012828012B1A
:1007110027012C46012D450222000002240000027F
:0907210026000002290000C101BC
:0F072B008F807F057E0012073AD2A77F057E00E0
:10073A00D3EF9400EE940040147D0A7C00ED1D7006
:0D074A00011CED4C70F7EF1F70E61E80E300
:01075700227F
:10079A007C007D0A120622ED2430FF1207927F8E1A
:0807AA00C2A512072BC2A72211
:10077A007C037DE81206227F647E00CFCDCFCECCEB
:08078A00CE120622EF2430FF1D
:08079200D2A512072BC2A72219
:10067700E4FBC2A67F381207AA7F0C1207AA7F06DF
:100687001207AA7F011207AA7F801207AAEB900719
:100697005893FF1207920BBB10F37FC01207AAE40F
:0E06A700FBEB90076993FF1207920BBB10F359
:0106B5002222
:100429007F853001030204D21207AAAE22AF237CD2
:10043900037DE812078BAE22AF2312077A7F2E12B3
:100449000792AE22AF237C007D641206227F0A1236
:100459000783AE22AF2312079AE52875F00A842490
:1004690030FF120792E52875F00A84E5F02430FF81
:100479001207927FC51207AAAE26AF277C037DE833
:1004890012078BAE26AF2712077A7F2E120792AE7C
:1004990026AF277C007D641206227E007F0A1207A0
:1004A90085AE26AF277C007D0A120622ED2430FF97
:1004B9001207927FCE1207AAE52C75F00A84243020
:1004C900FF120792E52C0205721207AAAE24AF2586
:1004D9007C037DE812078BAE24AF2512077A7F2EA5
:1004E900120792AE24AF257C007D641206227E009D
:1004F9007F0A120785AE24AF2512079AE52B75F0FE
:100509000A842430FF120792E52B75F00A84E5F07E
:100519002430FF1207927FC51207AAAE29AF2A7CA1
:10052900037DE812078BAE29AF2A12077A7F2E12B4
:100539000792AE29AF2A7C007D641206227E007FD5
:100549000A120785AE29AF2A7C007D0A120622ED20
:100559002430FF1207927FCE1207AAE52D75F00A03
:10056900842430FF120792E52D75F00A84E5F02402
:0B05790030FF1207927FCF1207AA226A
:10000E005389F0438901758AB0758C3CD2AFD2A961
:03001E00D28C225F
:1000260020B20730B2FD0530C28CE530B401097F3D
:10003600381207AA7F8F800CE530B402167F38127B
:1000460007AA7FCF1207AA7F0F1207AA7F061207F9
:10005600AA8016E530C39403400FE4F5307F3812CA
:1000660007AA7F0C1207AAD28C20B35CE530640184
:10007600705630B3FD2001210528E528C39463405E
:1000860003E4F5287F8E1207AAE52875F00A842472
:1000960030FF120792E528801F052BE52BC39463DA
:1000A6004003E4F52B7F8E1207AAE52B75F00A8430
:1000B6002430FF120792E52B75F00A84E5F0243010
:1000C600FF1207927F8F806B20B36DE5306402705C
:1000D6006730B3FD20012F052CE52CC39463400344
:1000E600E4F52C7FCE1207AAE52C75F00A8424309D
:1000F600FF120792E52C75F00A84E5F02430FF1212
:1001060007927FCF802D052DE52DC394634003E430
:10011600F52D7FCE1207AAE52D75F00A842430FF4F
:10012600120792E52D75F00A84E5F02430FF1207D8
:10013600927FCF1207AA802620B323E530701F30A6
:10014600B3FDA201B392017FC11207AAA201E43353
:100156002431FF1207927FC11207AA12042920B484
:100166005CE5306401705630B4FD2001211528E5A8
:1001760028D3940050037528637F8E1207AAE528BA
:1001860075F00A842430FF120792E528801F152B8C
:10019600E52BD394005003752B637F8E1207AAE5D7
:1001A6002B75F00A842430FF120792E52B75F00AAE
:1001B60084E5F02430FF1207927F8F806B20B46BAA
:1001C600E5306402706530B4FD20012F152CE52C56
:1001D600D394005003752C637FCE1207AAE52C75C5
:1001E600F00A842430FF120792E52C75F00A84E5A4
:1001F600F02430FF1207927FCF802D152DE52DD3E9
:1002060094005003752D637FCE1207AAE52D75F075
:100216000A842430FF120792E52D75F00A84E5F072
:0C0226002430FF1207927FCF1207AA229B
:100232001206771207B212000E2000030203CAE56B
:100242003B24B260030203C8E521D39400500302A9
:1002520003C8752E01E53224D0F96401600302035C
:1002620004E53424D0FFE434FFFE7C007D641206F2
:1002720010AA06AB07E53324D0FFE434FFFE7C036B
:100282007DE8120610EF2BFBEE3AFAE53524D0FF9B
:10029200E434FFFE7C007D0A120610EF2BFFEE3ADB
:1002A200FEE53624D0FDEC34FFCD2FF527ED3EF5EB
:1002B20026E53824D0FFE434FFFE7D64120610AA3E
:1002C20006AB07E53724D0FFE434FFFE7C037DE86C
:1002D200120610EF2BFBEE3AFAE53924D0FFE43494
:1002E200FFFE7C007D0A120610EF2BFFEE3AFEE5C0
:1002F2003A24D0FDEC34FFCD2FF523ED3EF522025A
:1003020003AAE9640260030203ADE53424D0FFE4EA
:1003120034FFFE7C007D64120610AA06AB07E533AB
:1003220024D0FFE434FFFE7C037DE8120610EF2B9D
:10033200FBEE3AFAE53524D0FFE434FFFE7C007D83
:100342000A120610EF2BFFEE3AFEE53624D0FDEC42
:1003520034FFCD2FF52AED3EF529E53824D0FFE410
:1003620034FFFE7D64120610AA06AB07E53724D0DF
:10037200FFE434FFFE7C037DE8120610EF2BFBEE58
:100382003AFAE53924D0FFE434FFFE7C007D0A12FC
:100392000610EF2BFFEE3AFEE53A24D0FDEC34FFD7
:1003A200CD2FF525ED3EF524120429E4F521F53192
:1003B200F532F533F534F535F536F537F538F539E7
:1003C200F53AF53BF52EC200E5307055E53CC39495
:1003D20014404EE4F53CE52875F064A4C39523E58A
:1003E200F09522400FE52B75F064A4C39525E5F046
:1003F20095245004C2918002D291E52C75F064A438
:10040200C39527E5F09526400FE52D75F064A4C34A
:10041200952AE5F0952950047F4180027F42120718
:07042200C912002602023B93
:03000B000207D712
:0A07D700758AB0758C3C0508053CDE
:0107E10032E5
:030023000206B61C
:1006B600C0E0C0D075D010309902C2993098278515
:1006C600992FE52E701CE52FB44D07752101F531E4
:1006D6008010E521D39400400974312521F8A62F16
:0B06E6000521D200C298D0D0D0E03235
:1007B200758920758DFD758BFDD28E759850D2ACE2
:0707C200D2AFC299C29822D8
:0E07C900C2ACC2998F993099FDC299D2AC2270
:10059000020232E493A3F8E493A34003F68001F24D
:1005A00008DFF48029E493A3F85407240CC8C3336C
:1005B000C4540F4420C8834004F456800146F6DF3B
:1005C000E4800B01020408102040809006F1E47ED4
:1005D000019360BCA3FF543F30E509541FFEE49330
:1005E000A360010ECF54C025E060A840B8E493A3F7
:1005F000FAE493A3F8E493A3C8C582C8CAC583CA22
:10060000F0A3C8C582C8CAC583CADFE9DEE780BED9
:01072A0000CE
:10061000EF8DF0A4A8F0CF8CF0A428CE8DF0A42EFE
:02062000FE22B8
:10062200BC000BBE0029EF8DF084FFADF022E4CCBC
:10063200F875F008EF2FFFEE33FEEC33FCEE9DEC85
:10064200984005FCEE9DFE0FD5F0E9E4CEFD22EDCB
:10065200F8F5F0EE8420D21CFEADF075F008EF2F15
:10066200FFED33FD4007985006D5F0F222C398FD06
:050672000FD5F0EA22A3
:00000001FF
